{
  "contractName": "SimpleStorage",
  "abi": [
    {
      "constant": true,
      "inputs": [
        {
          "name": "",
          "type": "uint256"
        }
      ],
      "name": "IpfsHash",
      "outputs": [
        {
          "name": "_ipfsHash",
          "type": "string"
        }
      ],
      "payable": false,
      "stateMutability": "view",
      "type": "function"
    },
    {
      "constant": false,
      "inputs": [
        {
          "name": "_ipfsHash",
          "type": "string"
        }
      ],
      "name": "set",
      "outputs": [],
      "payable": false,
      "stateMutability": "nonpayable",
      "type": "function"
    },
    {
      "constant": true,
      "inputs": [],
      "name": "arraylength",
      "outputs": [
        {
          "name": "",
          "type": "uint256"
        }
      ],
      "payable": false,
      "stateMutability": "view",
      "type": "function"
    },
    {
      "constant": true,
      "inputs": [],
      "name": "get",
      "outputs": [
        {
          "name": "",
          "type": "string"
        }
      ],
      "payable": false,
      "stateMutability": "view",
      "type": "function"
    }
  ],
  "bytecode": "0x608060405234801561001057600080fd5b50610629806100206000396000f300608060405260043610610062576000357c0100000000000000000000000000000000000000000000000000000000900463ffffffff1680634ed3885e146100675780636d13997c146100d05780636d4ce63c146100fb578063b4e441fd1461018b575b600080fd5b34801561007357600080fd5b506100ce600480360381019080803590602001908201803590602001908080601f0160208091040260200160405190810160405280939291908181526020018383808284378201915050505050509192919290505050610231565b005b3480156100dc57600080fd5b506100e561033e565b6040518082815260200191505060405180910390f35b34801561010757600080fd5b50610110610375565b6040518080602001828103825283818151815260200191508051906020019080838360005b83811015610150578082015181840152602081019050610135565b50505050905090810190601f16801561017d5780820380516001836020036101000a031916815260200191505b509250505060405180910390f35b34801561019757600080fd5b506101b660048036038101908080359060200190929190505050610417565b6040518080602001828103825283818151815260200191508051906020019080838360005b838110156101f65780820151818401526020810190506101db565b50505050905090810190601f1680156102235780820380516001836020036101000a031916815260200191505b509250505060405180910390f35b80600090805190602001906102479291906104d8565b50600160206040519081016040528060008054600181600116156101000203166002900480601f0160208091040260200160405190810160405280929190818152602001828054600181600116156101000203166002900480156102ec5780601f106102c1576101008083540402835291602001916102ec565b820191906000526020600020905b8154815290600101906020018083116102cf57829003601f168201915b50505050508152509080600181540180825580915050906001820390600052602060002001600090919290919091506000820151816000019080519060200190610337929190610558565b5050505050565b6000806000809150600090505b60018054905081101561036d578180600101925050808060010191505061034b565b819250505090565b606060008054600181600116156101000203166002900480601f01602080910402602001604051908101604052809291908181526020018280546001816001161561010002031660029004801561040d5780601f106103e25761010080835404028352916020019161040d565b820191906000526020600020905b8154815290600101906020018083116103f057829003601f168201915b5050505050905090565b60018181548110151561042657fe5b90600052602060002001600091509050806000018054600181600116156101000203166002900480601f0160208091040260200160405190810160405280929190818152602001828054600181600116156101000203166002900480156104ce5780601f106104a3576101008083540402835291602001916104ce565b820191906000526020600020905b8154815290600101906020018083116104b157829003601f168201915b5050505050905081565b828054600181600116156101000203166002900490600052602060002090601f016020900481019282601f1061051957805160ff1916838001178555610547565b82800160010185558215610547579182015b8281111561054657825182559160200191906001019061052b565b5b50905061055491906105d8565b5090565b828054600181600116156101000203166002900490600052602060002090601f016020900481019282601f1061059957805160ff19168380011785556105c7565b828001600101855582156105c7579182015b828111156105c65782518255916020019190600101906105ab565b5b5090506105d491906105d8565b5090565b6105fa91905b808211156105f65760008160009055506001016105de565b5090565b905600a165627a7a72305820cbb479dded3ca2efa8d6e114e07f067d07bd423d440de195b12842549c8b16970029",
  "source": "pragma solidity >=0.4.21 <0.6.0;\n\ncontract SimpleStorage {\n  string ipfsHash;\n\n  struct Ipfs {\n    string _ipfsHash;\n  }\n\n  Ipfs[] public IpfsHash;\n\n  function set(string memory _ipfsHash) public {\n    ipfsHash = _ipfsHash;\n    IpfsHash.push(Ipfs(ipfsHash));\n  }\n\n  function arraylength() public view returns (uint) {\n    uint counter = 0;\n    for (uint i = 0; i < IpfsHash.length; i++) {\n      counter++;\n    }\n    return counter;\n  }\n\n  function get() public view returns (string memory) {\n    return ipfsHash;\n  }\n}\n",
  "sourcePath": "/Users/yosuke.aramaki/Desktop/MyApps/ipfs_image_uploader/contracts/SimpleStorage.sol",
  "compiler": {
    "name": "solc",
    "version": "0.4.25+commit.59dbf8f1.Emscripten.clang"
  },
  "schemaVersion": "2.0.2",
  "updatedAt": "2019-05-11T23:00:47.896Z"
}