{
  "contractName": "SimpleStorage",
  "abi": [
    {
      "constant": true,
      "inputs": [
        {
          "name": "",
          "type": "uint256"
        }
      ],
      "name": "IpfsHash",
      "outputs": [
        {
          "name": "_ipfsHash",
          "type": "string"
        }
      ],
      "payable": false,
      "stateMutability": "view",
      "type": "function",
      "signature": "0xb4e441fd"
    },
    {
      "anonymous": false,
      "inputs": [
        {
          "indexed": false,
          "name": "ipfsHash",
          "type": "string"
        }
      ],
      "name": "createIpfsHash",
      "type": "event",
      "signature": "0x18decc89b51efbb68d38200b6d299ee6bef7fa17ecc6f566a180951332c6cbc2"
    },
    {
      "constant": false,
      "inputs": [
        {
          "name": "_ipfsHash",
          "type": "string"
        }
      ],
      "name": "set",
      "outputs": [],
      "payable": false,
      "stateMutability": "nonpayable",
      "type": "function",
      "signature": "0x4ed3885e"
    },
    {
      "constant": true,
      "inputs": [],
      "name": "get",
      "outputs": [
        {
          "name": "",
          "type": "string"
        }
      ],
      "payable": false,
      "stateMutability": "view",
      "type": "function",
      "signature": "0x6d4ce63c"
    },
    {
      "constant": true,
      "inputs": [],
      "name": "arraylength",
      "outputs": [
        {
          "name": "",
          "type": "uint256"
        }
      ],
      "payable": false,
      "stateMutability": "view",
      "type": "function",
      "signature": "0x6d13997c"
    }
  ],
  "bytecode": "0x608060405234801561001057600080fd5b50610726806100206000396000f3fe608060405260043610610062576000357c0100000000000000000000000000000000000000000000000000000000900463ffffffff1680634ed3885e146100675780636d13997c1461012f5780636d4ce63c1461015a578063b4e441fd146101ea575b600080fd5b34801561007357600080fd5b5061012d6004803603602081101561008a57600080fd5b81019080803590602001906401000000008111156100a757600080fd5b8201836020820111156100b957600080fd5b803590602001918460018302840111640100000000831117156100db57600080fd5b91908080601f016020809104026020016040519081016040528093929190818152602001838380828437600081840152601f19601f82011690508083019250505050505050919291929050505061029e565b005b34801561013b57600080fd5b50610144610465565b6040518082815260200191505060405180910390f35b34801561016657600080fd5b5061016f610472565b6040518080602001828103825283818151815260200191508051906020019080838360005b838110156101af578082015181840152602081019050610194565b50505050905090810190601f1680156101dc5780820380516001836020036101000a031916815260200191505b509250505060405180910390f35b3480156101f657600080fd5b506102236004803603602081101561020d57600080fd5b8101908080359060200190929190505050610514565b6040518080602001828103825283818151815260200191508051906020019080838360005b83811015610263578082015181840152602081019050610248565b50505050905090810190601f1680156102905780820380516001836020036101000a031916815260200191505b509250505060405180910390f35b80600090805190602001906102b49291906105d5565b50600160206040519081016040528060008054600181600116156101000203166002900480601f0160208091040260200160405190810160405280929190818152602001828054600181600116156101000203166002900480156103595780601f1061032e57610100808354040283529160200191610359565b820191906000526020600020905b81548152906001019060200180831161033c57829003601f168201915b505050505081525090806001815401808255809150509060018203906000526020600020016000909192909190915060008201518160000190805190602001906103a4929190610655565b505050507f18decc89b51efbb68d38200b6d299ee6bef7fa17ecc6f566a180951332c6cbc2600060405180806020018281038252838181546001816001161561010002031660029004815260200191508054600181600116156101000203166002900480156104545780601f1061042957610100808354040283529160200191610454565b820191906000526020600020905b81548152906001019060200180831161043757829003601f168201915b50509250505060405180910390a150565b6000600180549050905090565b606060008054600181600116156101000203166002900480601f01602080910402602001604051908101604052809291908181526020018280546001816001161561010002031660029004801561050a5780601f106104df5761010080835404028352916020019161050a565b820191906000526020600020905b8154815290600101906020018083116104ed57829003601f168201915b5050505050905090565b60018181548110151561052357fe5b90600052602060002001600091509050806000018054600181600116156101000203166002900480601f0160208091040260200160405190810160405280929190818152602001828054600181600116156101000203166002900480156105cb5780601f106105a0576101008083540402835291602001916105cb565b820191906000526020600020905b8154815290600101906020018083116105ae57829003601f168201915b5050505050905081565b828054600181600116156101000203166002900490600052602060002090601f016020900481019282601f1061061657805160ff1916838001178555610644565b82800160010185558215610644579182015b82811115610643578251825591602001919060010190610628565b5b50905061065191906106d5565b5090565b828054600181600116156101000203166002900490600052602060002090601f016020900481019282601f1061069657805160ff19168380011785556106c4565b828001600101855582156106c4579182015b828111156106c35782518255916020019190600101906106a8565b5b5090506106d191906106d5565b5090565b6106f791905b808211156106f35760008160009055506001016106db565b5090565b9056fea165627a7a7230582006417915e5bbe1ded81a0601726bd4ceabbf55dbaeb75cf6a841de87aa2e90480029",
  "source": "pragma solidity >=0.4.21 <0.6.0;\n\ncontract SimpleStorage {\n  string ipfsHash;\n\n  struct Ipfs {\n    string _ipfsHash;\n  }\n\n  event createIpfsHash (\n    string ipfsHash\n  );\n\n  Ipfs[] public IpfsHash;\n\n  function set(string memory _ipfsHash) public {\n    ipfsHash = _ipfsHash;\n    IpfsHash.push(Ipfs(ipfsHash));\n    emit createIpfsHash(ipfsHash);\n  }\n\n  function get() public view returns (string memory) {\n    return ipfsHash;\n  }\n\n  function arraylength() public view returns (uint) {\n    return IpfsHash.length;\n  }\n}\n",
  "sourcePath": "/Users/yosuke.aramaki/Desktop/MyApps/ipfs_image_uploader/contracts/SimpleStorage.sol",
  "compiler": {
    "name": "solc",
    "version": "0.5.0+commit.1d4f565a.Emscripten.clang"
  },
  "schemaVersion": "3.0.0",
  "updatedAt": "2019-06-25T07:29:32.038Z",
  "devdoc": {
    "methods": {}
  },
  "userdoc": {
    "methods": {}
  }
}